:020000040800F2
:10000000300700205D3C0008890100088B010008D2
:100010008F0100089301000897010008000000000C
:100020000000000000000000000000009B0100082C
:100030009D010008000000009F010008A1010008C8
:10004000773C0008773C0008773C0008773C0008C4
:10005000773C0008773C0008773C0008773C0008B4
:10006000773C0008773C0008773C0008773C0008A4
:10007000773C0008773C0008773C0008773C000894
:10008000773C0008773C0008773C0008773C000884
:10009000773C0008773C0008773C0008773C000874
:1000A000773C0008773C0008773C0008773C000864
:1000B000C31D0008773C0008773C0008773C000827
:1000C000773C0008773C0008773C0008773C000844
:1000D000773C00082F050008171900084F12000888
:1000E000773C0008773C0008773C0008DFF80CD02C
:1000F00004F01AFA00480047010100083007002008
:1001000000F040F94FF4A06002F0A8F801F0C4FC40
:100110004FF4165000F0BAF901F042FA01F002F87B
:1001200000F04EFA01F016FE04E013A004F00EFAFF
:1001300001F0F1FEF9E710B501F07AF801F0EBFEFD
:1001400010BD10B500F06BFA00F028FD00F0D1FAF8
:1001500000F0EFFA10BD10B500F0DDFB00F083FCFD
:1001600010BD10B500F0B6FC10BD10B500F057FB87
:1001700010BD7047704770474465627567204265DF
:1001800067696E2021000000704700BFFEE700BFD6
:10019000FEE700BFFEE700BFFEE77047704770470D
:1001A000704700000CB50020019000906C4800687A
:1001B00040F480306A49086000BF6948006800F474
:1001C000003000900198401C0190009818B90198E7
:1001D000B0F5A06FF1D16248006800F4003010B1B2
:1001E0000120009001E0002000900098012843D1F8
:1001F0005C48006840F010005A49086008460068F2
:1002000020F0030008600846006840F00200086023
:10021000534840685249486008464068486008466C
:10022000406840F4806048600846406820F47C10D4
:1002300048600846406840F4E81048600846006896
:1002400040F08070086000BF4548006800F0007012
:100250000028F9D04248406820F003004049486037
:100260000846406840F00200486000BF3C484068D3
:1002700000F00C000828F9D10CBD10B5FFF792FF73
:1002800010BD10B53648006840F0010034490860E0
:1002900008464068344908403149486008460068CB
:1002A000324908402E4908600846006820F4802042
:1002B00008600846406820F4FE0048604FF41F00C4
:1002C0008860FFF7DAFF4FF000602949086010BD31
:1002D00010B5002100200022214B5B6803F00C01C7
:1002E00021B1042906D0082928D107E0214B224C4E
:1002F000236027E01F4B204C236023E0184B5B68F2
:1003000003F47010164B5B6803F48032022303EB96
:10031000904022B9194B4343174C23600DE0104B1A
:100320005B6803F4003323B1144B4343124C236046
:1003300003E0104B4343104C236003E00D4B0E4C85
:10034000236000BF00BF064B5B68C3F303130C4C74
:10035000E15C094B1B68CB40074C236010BD0000DB
:1003600000100240002002400000FFF8FFFFF6FEF0
:1003700008ED00E000127A000000002000093D00B6
:100380000400002010B56FF0040001F0B6FF3448FF
:1003900000683449B0FBF1F0334908700846007832
:1003A00000EB4001C1EBC0104FF6FF7101EAC00045
:1003B0002E49088010BD01462B4A12784A434FF05F
:1003C000E0235A6100229A611A46126942F0010242
:1003D0001A6100BF4FF0E022106900F001021AB16B
:1003E00000F48032002AF5D04FF0E022126922F0AA
:1003F00001024FF0E0231A6100229A617047014622
:100400001A4A12884A434FF0E0235A6100229A6147
:100410001A46126942F001021A6100BF4FF0E02251
:10042000106900F001021AB100F48032002AF5D000
:100430004FF0E022126922F001024FF0E0231A612E
:1004400000229A61704730B50446002505E04FF45C
:100450007A70FFF7D4FF681C85B2A542F7DB30BD88
:100460000000002000127A00140000201600002076
:1004700000BF704700BF4E4A128802F04002002AB7
:10048000F9D0C2B24A4B1B1D1A80704710B586B016
:1004900004460121880302F06BFA0121092002F0D1
:1004A00067FA0121042002F078F84020ADF814002A
:1004B00003208DF8160018208DF8170005A93D4877
:1004C00001F09AFF8020ADF8140004208DF8170089
:1004D00005A9384801F090FF25208DF80000002084
:1004E0008DF801008DF8020001208DF803006846A8
:1004F00001F0B9FE01940020ADF80800ADF80A0043
:10050000ADF80C00ADF810000C20ADF80E0001A9FC
:10051000274803F0E2F9012240F22551244803F074
:1005200074FA0121224803F064FA06B010BD10B538
:1005300040F225511E4803F04DFB002837D01C48DF
:1005400003F0C8FA1C49087008460078302801D129
:1005500000F0E6FB18480078312801D100F0B2FB2A
:1005600015480078322801D100F0C7FB1248007806
:10057000332804D111A003F0E9FF00F0E2FB0E489C
:100580000078342801D100F0ECFB0B4800783528C6
:1005900001D100F0FEFB00F00AFC00F03DFC00F091
:1005A0004EFC00F085FC00F0CCFC00F013FD10BD0B
:1005B00000380140000C01401E0000203100000006
:1005C00010B500234FF07A52FE494FF07C5000F0F6
:1005D00027FDFD49086000231A464FF08041184668
:1005E00000F01EFDF94908600023F94A4FF07E51E2
:1005F000184600F015FDF749086000234FF07C52C3
:10060000F549184600F00CFDF44908600023F44A4F
:10061000F449184600F004FDF349086010BD2DE9C7
:10062000F04F87B0F1490988F04A5288881A03F0E0
:1006300077FDEF490860EF49886803F0DEFD8046EA
:10064000ED4AEE4B03F085FCED4AEE4BCDE900019F
:1006500003F085FC06460022EB4B03F0F2FC044657
:100660000022EA4B03F07BFC82468B46E848006898
:1006700003F0C3FD52465B46CDE9020103F0C8FB1F
:10068000CDE9040103F0FCFDE1490860084600687B
:1006900003F0B3FD06460022134603F060FC8046DB
:1006A00089464FF07E51D248006803F041FB064670
:1006B00003F0A3FD824642464B4603F0A9FB0446E5
:1006C00003F0DEFDD3490860D349D248006803F047
:1006D000FDFD02D2D048CF490860D049CD4800681E
:1006E00003F0EAFD02D2CD48CA49086007B0BDE870
:1006F000F08F2DE9F041C748006803F07EFD054604
:10070000C74AC84B03F02BFC074603F0B9FD04466B
:10071000AD48006800F0A3FC05462946AB480068D8
:1007200000F0F8FC2146A948006800F09BFCBDE8F9
:10073000F0812DE9F047AC48006800F090FC81465C
:10074000A549484603F0C2FD01D2DFF88C92B649B4
:10075000484603F0B1FD01D2DFF8CC929B48006817
:1007600000F07DFC0446B1480168204603F0DAFA47
:10077000074603F042FD05460022AD4B03F068FD3D
:100780000CD2AA48006803F038FD07460022A84BA7
:1007900003F03EFB054603F073FD0446A3480168E1
:1007A000204603F0BFFA074603F027FD0546002266
:1007B000A04B03F035FD0CD29C48006803F01DFDF2
:1007C000054600229A4B03F0C4FB074603F058FD90
:1007D00004469949204603F079FD00D2964C002149
:1007E000204603F069FD00D2002490480460494689
:1007F000204603F097FA06468F4903F041FA054672
:1008000001F05BF94946204603F03AFA06468A4968
:1008100003F036FA054601F09EF9BDE8F0872DE9B0
:10082000F0418648007888B97049088803F092FC46
:1008300007460022744B03F004FC054603F020FD3C
:10084000044621466048006800F00CFC7B480078B4
:10085000012813D16549088803F07CFC0746002273
:10086000694B03F0EEFB054603F00AFD04467448AD
:10087000214602685448006800F021FC5248006894
:10088000C168704803F086FA05464FF07E5103F0C8
:1008900049FA04464C480068C169204603F00CFD43
:1008A0000DD249480068C168664803F073FA0446EF
:1008B0004FF07E5103F036FA43490968C861424857
:1008C0000068C1685F4803F065FA80F000454FF0AA
:1008D0007E51284603F0D4F904463B480068C169BC
:1008E000204603F0F3FC0FD237480068C168554832
:1008F00003F050FA80F000444FF07E51204603F0A0
:10090000BFF931490968C861384801884EA003F031
:100910001DFEBDE8F0812DE9F0413649486903F03C
:100920006CFC0746364A4A4B03F019FB054603F0B8
:10093000A7FC044621462748006800F093FB2548A1
:100940000068C168434803F025FA05464FF080412E
:1009500003F0E8F904461F480068C169204603F027
:10096000ABFC0DD21B480068C1683A4803F012FA8C
:1009700004464FF0804103F0D5F916490968C86173
:1009800014480068C168334803F004FA80F0004559
:100990004FF08041284603F073F904460D48006883
:1009A000C169204603F092FC5BD20A480068C16826
:1009B000284803F0EFF980F000444FF080412046D2
:1009C0004AE00000000070412000002024000020C8
:1009D0000AD7233C2C0000200000204128000020E2
:1009E0006F12833A666626403000002048000020DF
:1009F00038000020980000201EA7E8482EFFEF3F97
:100A00009A9999999999234000408F400000244079
:100A10003C000020400000200000A0420000A0C2D6
:100A20007B14AE47E17A943F000020C144000020CF
:100A30000000F83F0000F8BF0000704234000020C2
:100A40006C0000200000204225640D0A0000000018
:100A50009999E93F0000F04103F012F985490968CE
:100A6000C861BDE8F0812DE9F0478248006800F0D8
:100A7000F6FA04468049204603F028FC00D27E4C5A
:100A80007E49204603F018FC00D27C4C204603F03F
:100A9000B4FB074600227A4B03F05EFA054603F0EA
:100AA00093FB1FFA80F94946764802F091FE2046F2
:100AB00003F0A3FB07460022734B03F04DFA0546F3
:100AC00003F082FB1FFA80F949466E4802F082FE6D
:100AD000BDE8F0872DE9F0476C4AD1696C4AD069CE
:100AE00003F020F90446204603F087FB0546694AD7
:100AF000694B03F095FB09D2204603F07EFB0546C7
:100B0000644A664B03F0A4FB00D20024204603F0A5
:100B100074FB0746624A634B03F021FA054603F073
:100B2000AFFB814649466048006800F09BFA5E488A
:100B30000068C1684FF0804003F02CF905465A4820
:100B40000068C169284603F0B7FB09D2564800681F
:100B5000C1684FF0804003F01DF953490968C8612E
:100B600051480068C1684FF0804003F013F980F0ED
:100B700000454D480068C169284603F0A7FB0BD229
:100B800049480068C1684FF0804003F003F980F0E5
:100B9000004045490968C861BDE8F0872DE9F04784
:100BA0004148006800F05BFA814649463F480068CA
:100BB00000F0B0FA3649086903F01FFB07463C4ACB
:100BC0003C4B03F0CCF9054603F05AFB04462146A2
:100BD0003648006800F046FABDE8F08710B53648A0
:100BE000006800F099FA3548006800F095FA2E4840
:100BF000006800F091FA1F48006800F08DFA2B4859
:100C0000006800F089FA10BD2DE9F04105462C4836
:100C100040682B490860084680684860084685603F
:100C200002465168906803F07DF8074603F09FFA8A
:100C3000061E01DB304600E07042C82802DA204878
:100C4000846813E01E4A1168906803F06BF8074649
:100C500003F08DFA061E01DB304600E07042C82822
:100C600002DA1748846801E0154804682046BDE8A8
:100C7000F08100002C00002000008442000084C2AB
:100C800000E09540002C014000609840C00000202A
:100C9000980000209A9999999999B93F9999B9BF63
:100CA0007B14AE47E17A843F28000020300000200A
:100CB000B81E85EB51B89E3F200000202400002084
:100CC0008C00002010B500214FF0804002F0E4FAC3
:100CD00040F25461C24802F077FD40F25461C048CE
:100CE00002F074FD4FF4AF61BD4802F071FD4FF4A6
:100CF000C361BB4802F06EFD10BD012080F3138874
:100D000000BF00BFB748006800F4E060B649084380
:100D1000001DB4490860BFF3408F00BF00BFFEE76D
:100D200010B54FF47A71AE4802F04EFD4FF47A716F
:100D3000AB4802F04BFD00214FF0804002F0ACFACE
:100D400010BD10B5A9A003F001FC01F003F8FFF7F6
:100D500045FF0121880702F09FFAA5A003F0F6FBEA
:100D600010BD10B500F0F6FFFFF738FF012188072E
:100D700002F092FA00234FF07A529E499E4800F00A
:100D80004FF99E4908600520FFF75DFBFFF79AFFCA
:100D900010BD10B500F0DEFFFFF720FF012188072E
:100DA00002F07AFA01F0CCF8FFF78CFF10BD10B515
:100DB00000F0D0FFFFF712FF0121880702F06CFA64
:100DC00000234FF07A528B498D4800F029F98B4966
:100DD00008608C480088B0F5876F1CDD8948008862
:100DE000B0F58C6F17DA0120FFF72DFB85480088DE
:100DF000B0F5876F0FDD83480088B0F58C6F0ADA95
:100E00000020814908608149C1F884010A20FFF768
:100E10001AFBFFF757FF10BD10B500F09BFFFFF75F
:100E2000DDFE0121880702F037FA00234FF07A52E5
:100E30007049734800F0F4F87049086010BD10B5AF
:100E400000F088FFFFF7CAFE0121880702F024FAAC
:100E500000234FF07A526749694800F0E1F867498A
:100E600008606848008840F23D4188421FDD6548BF
:100E7000008840F25B41884219DA0120FFF7E3FA6B
:100E80006048008840F23D41884210DD5D4800889E
:100E900040F25B4188420ADA00205B4908605B4906
:100EA000C1F884010A20FFF7CEFAFFF70BFF10BD4F
:100EB00010B500F04FFFFFF791FE0121880702F007
:100EC000EBF900234FF07A524A494FF07C5000F082
:100ED000A7F84A4908600320FFF7B5FA00234FF04E
:100EE0007A5244494A4800F09BF84449086003207C
:100EF000FFF7A9FA00234FF07A523E49454800F027
:100F00008FF83E4908600320FFF79DFA00234FF059
:100F10007A523849404800F083F838490860032085
:100F2000FFF791FA00234FF07A5232493B4800F024
:100F300077F8324908600320FFF785FAFFF7C2FE11
:100F400010BD10B500F006FFFFF748FE012188072D
:100F500002F0A2F900234FF07A5226494FF07C505C
:100F600000F05EF8254908600320FFF76CFA0023C3
:100F70004FF07A521F49264800F052F81F49086086
:100F80000320FFF760FA00234FF07A5219492148F5
:100F900000F046F8194908600320FFF754FA0023CF
:100FA0004FF07A5213491C4800F03AF81349086090
:100FB0000320FFF748FA00234FF07A520D491748F3
:100FC00000F02EF80D4908600320FFF73CFAFFF708
:100FD00079FE10BD10B501F02EF8FFF773FE10BDBD
:100FE000002C01400CED00E00000FA05320000008A
:100FF00033000000000070413333933F2000002095
:10100000CDCC8C3F480000208001214200002142CD
:10101000CDCC0C3F9A99193F6666263F3333333F58
:101020002DE9F04105460F4616469846302003F05C
:101030001FFF04462560A760E660C4F8108000200A
:10104000A061E06120626062A062E0622046BDE8CB
:10105000F08110B50446204603F0E2FE10BD0146C3
:10106000086A704770B504460D4665606069A06106
:10107000D4E9000102F056FE60616169A06802F0E7
:1010800057FE60626169E06902F0FAFDE061E169C2
:10109000E06802F04DFEA062D4E9050102F042FED4
:1010A0000646216902F044FEE062D4E9090102F03B
:1010B000E7FD0646E16A02F0E3FD206270BD2DE91E
:1010C000F04104460D46164665606069A061D4E9AA
:1010D000000102F027FE60616169A06802F028FE4D
:1010E0006062A662D4E9050102F01CFE0746216990
:1010F00002F01EFEE062D4E9090102F0C1FD0746DC
:10110000E16A02F0BDFD2062BDE8F0818160C2604D
:101110000361704701607047002141628162C162D2
:101120007047000010B586B002240121092001F0AB
:101130001FFC0121880401F028FCA002ADF800008A
:1011400004208DF803006946604801F055F96002FB
:10115000ADF8000003208DF8020018208DF8030080
:1011600069465A4801F048F94FF4165002900020A1
:10117000ADF80C00ADF80E00ADF81000ADF814009D
:101180000C20ADF8120002A9514802F0A6FB012282
:1011900040F225514E4802F038FC27208DF804001B
:1011A00001208DF8050002208DF8060001208DF841
:1011B000070001A801F057F80121454802F019FC89
:1011C0004021434802F0FDFC002042490870012004
:1011D0004149087006E03220FFF711F93F480088C6
:1011E0003E4988802000A4F10101CCB2F3D106B0C1
:1011F00010BD3A4A1288811A002901DB0A4600E034
:101200004A42322A13DA35490988344A5180128811
:10121000A2F58271002901DB0A4600E04A42032A56
:1012200003DA2E4949882D4A11802C4908807047DD
:1012300010B52848007848B95521254802F046FCE9
:1012400001202449087000202549087010BD10B500
:1012500040F225511E4802F0BDFCB0B31C4802F01C
:1012600039FC20491E4A127821F812001C480078E7
:10127000401C1B49087008460078022820D11648F7
:101280000078012810D100201349087015484088C3
:101290001449097800EB012080B210490880488089
:1012A00000200C4908700BE00E4949880D4A12785D
:1012B00001EB022188B2FFF79CFF0020054908706E
:1012C00040F22551024802F07CFC10BD000C0140A8
:1012D000004800404E0000204F0000204800002041
:1012E00050000020520000202DE9F047FE48007811
:1012F00000287AD0FD48FE490A6802604A684260C8
:101300000A890281897A81720020F7490870F848B9
:101310000078552869D1F6484078512804D05228E1
:1013200064D053287ED1C4E0F0498978EF4AD2785E
:1013300041EA022108B202F0FCFE80460022ED4B99
:1013400002F07FFE06460022EB4B02F008FE044648
:1013500002F096FFE9490860E4490979E34A5279C5
:1013600041EA022108B202F0E4FE80460022E14B8D
:1013700002F067FE06460022DF4B02F0F0FD044655
:1013800002F07EFFDD494860D8498979D74AD27991
:1013900041EA022108B202F0CCFE80460022D54B81
:1013A00002F04FFE06460022D34B02F0D8FD044661
:1013B00002F066FFD1498860CC49097ACB4A527A5B
:1013C00041EA022108B202F0B4FE80460022CC4B72
:1013D00002F037FE06460022CA4B02F019FD044611
:1013E00002F04EFFC5494862C5E0C5E0BF498978B3
:1013F000BE4AD27841EA022108B202F09AFE804643
:101400000022BC4B02F01DFE06460022BE4B02F03D
:10141000A6FD044602F034FFB849C860B349097913
:10142000B24A00E0A6E0527941EA022108B202F095
:1014300080FE80460022AF4B02F003FE06460022EB
:10144000B14B02F08CFD044602F01AFFAB49086173
:10145000A6498979A54AD27941EA022108B202F067
:1014600068FE06460022A34B02F0EBFD0446002274
:10147000A54B02F074FD804602F002FF9F494861CF
:101480009A49097A994A527A41EA022108B202F04D
:1014900050FE804600229A4B02F0D3FD0646002201
:1014A000984B02F0B5FC044602F0EAFE934948620C
:1014B00061E08E4989788D4AD27841EA022108B2EA
:1014C00002F037FE064600228A4B02F0BAFD0446BF
:1014D00000228E4B02F043FD804602F0D1FE874988
:1014E000886182490979814A527941EA022108B228
:1014F00002F01FFE804600227E4B02F0A2FD06464F
:101500000022824B02F02BFD044602F0B9FE7B491B
:10151000C86176498979754AD27941EA022108B2CF
:1015200002F007FE06460022724B02F08AFD0446D6
:101530000022764B02F013FD804602F0A1FE6F49B7
:1015400008626A49097A694A527A41EA022108B274
:1015500002F0EFFD06460022694B02F072FD0446E0
:101560000022684B02F054FC804602F089FE634979
:10157000486200E000BF00BFBDE8F08710B56424FA
:101580000BE004E00A20FEF73AFFFFF7ADFE200073
:10159000A4F10101CCB2F5D100E0F2E700BF10BD2B
:1015A00000B587B00121480401F0EFF901210520C1
:1015B00001F0DEF90420ADF8180018208DF81B00AA
:1015C00003208DF81A0006A9514800F015FF0820E5
:1015D000ADF8180048208DF81B0006A94C4800F013
:1015E0000BFF4FF4E13002900020ADF80C00ADF895
:1015F0000E00ADF81000ADF814000C20ADF812008C
:1016000002A9444802F069F9012240F225514148FB
:1016100002F0FBF926208DF8040001208DF805006A
:1016200002208DF8060001208DF8070001A800F0C7
:101630001AFE0121374802F0DCF94021354802F05A
:10164000C0FAFFF79BFF07B000BD2DE9F047264821
:10165000007800287ED0254825490A6802604A683B
:1016600042600A890281897A817200201E490870CD
:101670001F48007855286DD11D484078512804D066
:10168000522868D0532867D1E0E018498978174A72
:10169000D27841EA022108B202F04BFD80460022D6
:1016A000144B02F0CEFC06460022134B02F057FC0E
:1016B000044602F0E5FD184908600C4909790B4A17
:1016C000527941EA022108B202F033FD804600223D
:1016D000084B02F0B6FC06460022074B02F03FFC26
:1016E000044602F0CDFD19E05D000020220100203B
:1016F0000C0100200000E04000003040C00000204D
:10170000004075400020424000409F4000806640FD
:1017100000080140004400409800002097494860BC
:1017200097498979964AD27941EA022108B202F0B2
:1017300000FD80460022934B02F083FC0646002207
:10174000914B02F00CFC044602F09AFD8B49886034
:101750008B4902E0DDE018E0D9E0097A884A527A44
:1017600041EA022108B202F0E4FC80460022874BE5
:1017700002F067FC06460022854B02F049FB044656
:1017800002F07EFD7D494862C2E07D4989787C4A4D
:10179000D27841EA022108B202F0CBFC8046002256
:1017A000784B02F04EFC064600227A4B02F0D7FB43
:1017B000044602F065FD7149C86071490979704AB3
:1017C000527941EA022108B202F0B3FC80460022BD
:1017D0006C4B02F036FC064600226E4B02F0BFFB5B
:1017E000044602F04DFD6549086165498979644AFE
:1017F000D27941EA022108B202F09BFC064600229F
:10180000604B02F01EFC04460022624B02F0A7FB74
:10181000804602F035FD594948615949097A584ACC
:10182000527A41EA022108B202F083FC804600228B
:10183000564B02F006FC06460022554B02F0E8FA31
:10184000044602F01DFD4D49486261E04C4989782B
:101850004B4AD27841EA022108B202F06AFC0646FD
:101860000022484B02F0EDFB044600224A4B02F0F6
:1018700076FB804602F004FD4049886140490979C1
:101880003F4A527941EA022108B202F052FC8046F6
:1018900000223C4B02F0D5FB064600223E4B02F0F4
:1018A0005EFB044602F0ECFC3449C8613449897996
:1018B000334AD27941EA022108B202F03AFC0646E4
:1018C0000022304B02F0BDFB04460022324B02F0F6
:1018D00046FB804602F0D4FC284908622849097A70
:1018E000274A527A41EA022108B202F022FC064657
:1018F0000022264B02F0A5FB04460022244B02F0F6
:1019000087FA804602F0BCFC1C49486200E000BF38
:1019100000BFBDE8F08710B540F225511F4802F026
:1019200059F948B31D4802F0D5F815491C4A1278F8
:1019300088541B48007820B908460078552800D004
:1019400010BD17480078401C1549087008460078FB
:101950000B280FD113480A490A6802604A6842609E
:101960000A890281897A817200200D49087001205C
:101970000D490870FFF769FE00BFE1E798000020FD
:10198000220100200000E04000003040004075408F
:101990000020424000409F400080664000440040DC
:1019A0005C0000200C0100205D00002030B589B0F3
:1019B00005460C46012140F6010000F0D9FF012147
:1019C000042000F0D5FF4FF47060ADF8200018201F
:1019D0008DF8230003208DF8220008A9D24800F0DA
:1019E0000BFDADF81850ADF814400020ADF81A000A
:1019F000ADF8160005A9CD4801F0F2F87020ADF859
:101A000004000120ADF806000020ADF80A00022015
:101A1000ADF80C0001A9C54801F01FF901A9C348A0
:101A200001F05DF901A9C14801F0A6F901A9BF487B
:101A300001F0EDF90121BD4801F03AFC0821BB4855
:101A400001F05AFD0821B94801F05FFD0821B748AF
:101A500001F068FD0821B54801F06DFD0121B34892
:101A600001F01AFD4FF47A71B04801F0ADFE4FF469
:101A70007A71AE4801F0AAFE4FF4AF61AB4801F0B5
:101A8000A7FE4FF4C361A94801F0A4FE0121A748B5
:101A900001F002FC09B030BD10B5472144F62060CA
:101AA000FFF784FF4FF4AF61A04801F091FE4FF4BF
:101AB000C3619E4801F08EFE10BD2DE9F041044641
:101AC0009B48006802F02CFB07469A49204602F02A
:101AD0002FF98046984902F0D3F80646394602F0BD
:101AE000CFF80546944902F0E7FB05D24FF4966122
:101AF0008E4801F069FE2CE08D48006802F010FB72
:101B000007468C49204602F013F980468A4902F0C4
:101B1000B7F80646394602F0B3F80546874902F0A1
:101B2000D5FB05D240F2C671804801F04DFE10E0B1
:101B30008049204602F0FCF8064602F018FB00F54A
:101B400096607B490988084485B22946774801F0A8
:101B50003BFEBDE8F0812DE9F04104467448006881
:101B600002F0DEFA07467349204602F0E1F88046AB
:101B7000714902F085F80646394602F081F80546BB
:101B80006D4902F099FB05D24FF49661674801F068
:101B90001DFE2CE06648006802F0C2FA074665495F
:101BA000204602F0C5F88046634902F069F806460F
:101BB000394602F065F80546604902F087FB05D218
:101BC00040F2C671594801F001FE10E05949204623
:101BD00002F0AEF8064602F0CAFA00F596605449E3
:101BE0000988084485B22946504801F0EFFDBDE858
:101BF000F0814F49096801444D4A116070474C49D2
:101C0000086070472DE9F04104460021204602F0AB
:101C100053FB00D200244A49204602F057FB00D86B
:101C2000474C4849204602F083F80746464902F0EF
:101C300027F8064602F0B4FA85B229463B4801F07F
:101C4000C3FDBDE8F0812DE9F041044600212046A6
:101C500002F032FB00D200243949204602F036FB64
:101C600000D8374C3749204602F062F8074636491B
:101C700002F006F8064602F093FA85B229462B4890
:101C800001F0A4FDBDE8F0812DE9F05F82465046E9
:101C900002F060FA804600222C4B02F060F9064602
:101CA00000222B4B02F0CDF9044602F08DFA00F52C
:101CB000FA701FFA80FB59461C4801F089FDBDE807
:101CC000F09F10B5044619483C300088204481B28A
:101CD000164801F07DFD10BD2DE9F05F82465046AB
:101CE00002F038FA80460022184B02F038F9064616
:101CF0000022174B02F0A5F9044602F065FA00F540
:101D0000FA701FFA80FB5946084801F063FDBDE8F0
:101D1000F09F10B5044605483C300088204481B24D
:101D2000024801F057FD10BD00080140002C0140A1
:101D3000600000200000C0400000964400C0F8444D
:101D40000000C4420000204100007A4400409F404F
:101D5000008066401FB50121084600F016FE4FF0D6
:101D6000804000F069FE42F20F70ADF80800472095
:101D7000ADF804000020ADF80A00ADF8060001A996
:101D80004FF0804000F02CFF0121880701F05EFD3C
:101D900001221146900701F09AFA1C208DF80000EC
:101DA00002208DF8010001208DF802008DF803005B
:101DB000684600F058FA00214FF0804001F06CFABC
:101DC0001FBD10B50121880701F02FFD00285CD050
:101DD0000121880701F03AFD2C480088401C2B495E
:101DE0000880FEF7A8F92949088800EBD07149104E
:101DF000A0EB410109B9FEF7A4F924490888C117ED
:101E000000EB91718910A0EB810109B9FEF7A3F9EC
:101E10001E480088062190FBF1F201FB120008B970
:101E2000FEF7A3F919490888C11700EB5171C910D1
:101E3000A0EBC10109B9FEF794F9144800880A2102
:101E400090FBF1F201FB120008B9FEF792F90F487E
:101E500000880C2190FBF1F201FB120008B9FEF79B
:101E600089F90A490888C11700EB11710911A0EB23
:101E7000011109B9FEF77FF90448008841F2883161
:101E8000884202D101200149088010BD6400002071
:101E900004E0CA480078012800D100E0F9E700BF5B
:101EA00070472DE9FF47C6480188C6A002F04EFBE7
:101EB000C348001D0188C6A002F048FBC048083096
:101EC0000188C6A002F042FBBD480C300188C6A0C4
:101ED00002F03CFBC749486902F08FF904460D4601
:101EE000C449486802F089F906460F46C1490868A6
:101EF00002F083F9804642460B46BFA0CDE9006759
:101F0000CDE9024502F022FBC2480188C2A002F0DE
:101F10001DFBBDE8FF8710B5BE48008840F2DC51CC
:101F200088420CDD00214FF0804001F0B5F900201F
:101F3000FFF768FE0020FFF786FE00BFFEE710BD3A
:101F400010B53CE000234FF07A52B6494FF07C5078
:101F5000FFF766F8B4490860AE480088B0F5F57F31
:101F60002DDBAC480088B0F5FF7F28DC0120FEF7B0
:101F70006AFAA8480088B0F5F57F20DBA5480088FC
:101F8000B0F5FF7F1BDC0020A84908600320FEF7A6
:101F90005AFAA5480068806AA54908600120A54949
:101FA000C1F88001A449A0480068FFF7B3F8A3482E
:101FB0009D49096888600120A149087000E0C1E7D7
:101FC00000BF0220FEF73FFA9E4997480068FFF7DE
:101FD000A1F80120FEF737FA2AE08E48008840F287
:101FE0004C41884224DB8B48008840F29241884271
:101FF0001EDC8C488C490968886000209049087074
:102000008448008840F24C41884211DB81480088B6
:1020100040F2924188420BDC00208449091D08608F
:102020000320FEF710FA01208249C1F8800100E088
:10203000D3E700BF10BD10B531E083497A4800688E
:10204000FFF768F873480088B0F5917F27DB714887
:102050000088B0F59B7F22DC0120FEF7F4F96D4883
:102060000088B0F5917F1ADB6A480088B0F59B7F45
:1020700015DC0520FEF7E7F96B480068806A6C49BB
:1020800008604FF07C5168480068FFF743F86B48E0
:1020900065490968886001206949087000E0CCE75B
:1020A00000BF0220FEF7CFF968495F480068FFF7DC
:1020B00031F80120FEF7C7F92DE05648008840F2BC
:1020C0008A21884227DB53480088B0F5347F22DC20
:1020D00054485549096888600020594908704D489E
:1020E000008840F2B221884215DB4A48008840F25D
:1020F000C62188420FDC0520FEF7A5F94E494A4863
:102100000068FFF707F84D484749096888600120D3
:102110004B49087000E0D0E700BF0120FEF793F9BB
:102120004FF07E5140480068FEF7F4FF0120FEF7B3
:102130008AF929E03748008840F2B631884223DB2B
:1021400034480088B0F57F7F1EDC36483649096880
:10215000886000203A4908702E48008840F2DE313D
:10216000884211DB2B48008840F2F23188420BDCB8
:102170000520FEF768F936492B480068FEF7CAFFCC
:1021800001202F49087000E0D4E700BF0120FEF7CE
:102190005AF9304924480068FEF7BCFF0120FEF7D9
:1021A00052F94FF07C5120480068FEF7B3FF002041
:1021B000234908702849087010BD000068000020FD
:1021C000342C0140434352313A25640D0A0000008B
:1021D000434352323A25640D0A0000004343523310
:1021E0003A25640D0A000000434352343A25640D39
:1021F0000A00000098000020583A252E3266202060
:1022000020593A252E32662020205A3A252E326651
:102210000D0A00004800002048696768743A256488
:102220000D0A0000000070412000002080012142C2
:102230006C000020000021429A99593F0000A04103
:10224000340000203333933F9A99993E3333333F20
:10225000CDCC4C3F9A99193F1F00002031490143D2
:10226000314A1160704770B5002100230F22C478F5
:1022700004B32D4C246804F4E064C4F5E064210A3E
:10228000C1F10403CA40447804FA03F1847814408D
:1022900021430901254C0678A155047804F01F0557
:1022A0000124AC4005786D11AD0005F1E025C5F8BD
:1022B000004109E0047804F01F050124AC401C4DE6
:1022C0000678761145F8264070BD1A4A0A40024346
:1022D000154B1B1F1A60704739B1134A121D126843
:1022E0000243114B1B1D1A6006E00F4A121D1268B3
:1022F00082430D4B1B1D1A607047042808D14FF014
:10230000E021096941F004014FF0E022116107E08A
:102310004FF0E021096921F004014FF0E022116142
:10232000704700000000FA050CED00E000E400E05A
:1023300080E100E080FFFF1F10B50446CC488442D6
:1023400008D10121042000F02DFB0021042000F021
:1023500029FB46E0C748844208D10121082000F04B
:1023600021FB0021082000F01DFB3AE0C248844216
:1023700008D10121102000F015FB0021102000F0F1
:1023800011FB2EE0BD48844208D10121202000F03D
:1023900009FB0021202000F005FB22E0B848844220
:1023A00008D10121402000F0FDFA0021402000F07A
:1023B000F9FA16E0B348844208D10121802000F0E8
:1023C000F1FA0021802000F0EDFA0AE0AE488442E4
:1023D00007D10121801500F0E5FA0021A01500F0D9
:1023E000E1FA10BD10B50121084600F0DBFA00212A
:1023F000012000F0D7FA10BD2DE9F041024600257A
:102400000026002000230024002791F803C00CF0D0
:102410000F0591F803C00CF0100CBCF1000F03D0B5
:1024200091F802C04CEA050591F800C0BCF1000F1C
:1024300031D0146800202BE04FF0010C0CFA00F3AF
:10244000B1F800C00CEA03069E4220D183004FF091
:102450000F0C0CFA03F7BC4305FA03FC4CEA040426
:1024600091F803C0BCF1280F06D14FF0010C0CFA13
:1024700000FCC2F814C00AE091F803C0BCF1480F98
:1024800005D14FF0010C0CFA00FCC2F810C0401C42
:102490000828D1D31460B1F800C0BCF1FF0F34DDBF
:1024A000546800202EE000F1080C4FF0010808FAF3
:1024B0000CF3B1F800C00CEA03069E4221D1830060
:1024C0004FF00F0C0CFA03F7BC4305FA03FC4CEA7F
:1024D000040491F803C0BCF1280F05D100F1080CE9
:1024E00008FA0CF8C2F8148091F803C0BCF1480F48
:1024F00007D100F1080C4FF0010808FA0CF8C2F8F7
:102500001080401C0828CED35460BDE8F0814FF6FF
:10251000FF710180022181700421C1707047024661
:10252000002093680B400BB1012000E000207047B1
:102530000146886880B2704702460020D3680B408D
:102540000BB1012000E0002070470146C86880B24E
:10255000704701617047416170470AB1016100E055
:1025600041617047C16070474FF480320A43826115
:102570008161826182698269704702460020434B13
:1025800018684FF68073184040EA021008433F4B2A
:10259000186070473E49C8617047F0B50A4600238D
:1025A00000240021002500F00046B6F1004F02D1C2
:1025B000364EF16901E0354E7168C0F3034583B2D0
:1025C00000F44016B6F5401F08D121F070612F4E7F
:1025D000766826F070662D4F7E6012E000F480165B
:1025E000B6F5801F06D1032606FA05F4A14341F093
:1025F000706106E0460D360103FA06F6B14341F07C
:10260000706122B1460D360103FA06F6314300F03F
:102610000046B6F1004F02D11C4EF16101E01B4EA5
:102620007160F0BD30B500228B071C0F0F2303FA39
:1026300004F2164B08338C1053F824309343134C98
:1026400008348D1044F8253023468C1053F824307C
:102650008C07240F00FA04F423430C4C08348D102B
:1026600044F8253030BD0A49DC310860704700006D
:1026700000080140000C014000100140001401401E
:1026800000180140001C01400020014000000140F2
:1026900000002042DF48006840F00100DD4908608A
:1026A00008464068DC490840DA4948600846006846
:1026B000DA490840D74908600846006820F48020BD
:1026C00008600846406820F4FE0048604FF41F0090
:1026D00088607047CF49096821F48031CD4A116084
:1026E0001146096821F480211160B0F5803F03D0C4
:1026F000B0F5802F0ED106E0C649096841F480315B
:10270000C44A116007E0C349096841F4A021C14AE5
:10271000116000E000BF00BF704710B50146002205
:10272000002300204A11012A02D1BA4C236806E096
:10273000022A02D1B74C236A01E0B64C636A01F069
:102740001F02012494401C400CB1012000E0002035
:1027500010BD38B5002000900024002500BF3120B6
:10276000FFF7DBFF05460098401C00900098B0F58D
:10277000A06F01D0002DF2D03120FFF7CEFF08B1BD
:10278000012400E00024204638BD01460020A14A73
:10279000106820F0F80040EAC10010607047A049BE
:1027A00008607047024600209A4B586820F47C105D
:1027B00042EA01031843974B5860704798490866EE
:1027C000704701460020934A506820F003000843F8
:1027D000506070478F48406800F00C007047014619
:1027E00000208C4A506820F0F00008435060704789
:1027F00001460020874A506820F4E060084350609A
:10280000704701460020834A506820F4605040EA37
:10281000C1005060704729B17E4A527A02437D4B15
:102820005A7204E07B4A527A82437A4B5A7270475A
:102830007B49D8310860704701460020754A5068CE
:1028400020F440400843506070470021714A203214
:102850001170704A82F82010012802D004280AD191
:1028600004E001216B4A2032117005E00521694A1C
:102870002032117000E000BF00BF70476949086056
:1028800070476449096A0143624A116270476549A9
:1028900044390860704730B500210022002400232D
:1028A0005C4D6D6805F00C0121B1042905D00829A3
:1028B00023D105E05C4D056022E05B4D05601FE023
:1028C000544D6D6805F47012524D6D6805F48034F6
:1028D000022505EB92421CB9544D554305600BE0AF
:1028E0004C4D6D6805F400351DB1504D55430560E4
:1028F00002E04D4D5543056002E04B4D056000BFC1
:1029000000BF444D6D6805F0F0010909484D6B5C4E
:102910000568DD4045603F4D6D6805F4E061090ADA
:10292000434D6B5C4568DD4085603A4D6D6805F44C
:102930006051C90A3E4D6B5C4568DD40C560354D50
:102940006D6805F44041890B3A4D6B5CC568B5FB79
:10295000F3F5056130BD29B12E4A526902432D4B72
:102960005A6104E02B4A526982432A4B5A617047EC
:1029700029B1284A92690243264B9A6104E0254A0C
:1029800092698243234B9A61704729B1214AD269E7
:102990000243204BDA6104E01E4AD26982431D4B98
:1029A000DA61704729B11B4AD2680243194BDA60D9
:1029B00004E0184AD2688243164BDA60704729B1A6
:1029C000144A12690243134B1A6104E0114A126956
:1029D0008243104B1A6170471249403908607047B2
:1029E0000F49C86470470B49C87170470948406A6D
:1029F00040F0807007494862704701460020054A50
:102A000092680A400AB1012000E0002070470149A5
:102A100088727047001002400000FFF8FFFFF6FECA
:102A2000000042428004424200127A0000093D0048
:102A3000700000208000002010B50446FE4884424B
:102A400008D10121C014FFF7ADFF0021E014FFF70A
:102A5000A9FFC4E0B4F1804F08D101210846FFF777
:102A6000AEFF00210120FFF7AAFFB8E0F34884423F
:102A700008D101210220FFF7A2FF00210220FFF769
:102A80009EFFACE0EE48844208D101210420FFF70C
:102A900096FF00210420FFF792FFA0E0E94884425E
:102AA00008D101210820FFF78AFF00210820FFF745
:102AB00086FF94E0E448844208D101211020FFF70A
:102AC0007EFF00211020FFF77AFF88E0DF48844274
:102AD00008D101212020FFF772FF00212020FFF7FD
:102AE0006EFF7CE0DA48844208D101214014FFF7F0
:102AF00059FF00216014FFF755FF70E0D54884426C
:102B000009D10121C804FFF74DFF00214FF4002037
:102B1000FFF748FF63E0D048844209D1012108054E
:102B2000FFF740FF00214FF48010FFF73BFF56E016
:102B3000CA48844209D101214805FFF733FF00212B
:102B40004FF40010FFF72EFF49E0C548844208D13A
:102B500001214020FFF733FF00214020FFF72FFF26
:102B60003DE0C048844208D101218020FFF727FFC3
:102B700000218020FFF723FF31E0BB48844208D1C9
:102B800001218015FFF71BFF0021A015FFF717FF9C
:102B900025E0B648844209D101210804FFF702FF6D
:102BA00000214FF48030FFF7FDFE18E0B04884426A
:102BB00009D101214804FFF7F5FE00214FF4003050
:102BC000FFF7F0FE0BE0AB48844208D101218804F6
:102BD000FFF7E8FE00214FF48020FFF7E3FE10BD71
:102BE00000220288944B98420ED0994B98420BD009
:102BF000B0F1804F08D0914B984205D0904B98424D
:102C000002D0904B984204D14FF68F731A404B88F4
:102C10001A438D4B984207D08C4B984204D04FF604
:102C2000FF431A40CB881A4302808B8883850B8828
:102C30000385814B98420BD0854B984208D08B4B33
:102C4000984205D08A4B984202D08A4B984201D1D3
:102C50000B7A038601238382704770B5002400221B
:102C60000023058C4FF6FE7635400584028C838860
:102C7000048B4FF68F752C40B51E2C400D882C43CD
:102C8000751E2A400D892A434D882A436A4DA84261
:102C90000BD06F4DA84208D0744DA84205D0744D9A
:102CA000A84202D0734DA84213D14FF6F7752A40BF
:102CB0004D892A434FF6FB752A408D882A434FF6EB
:102CC000FF652B404FF6FF552B408D892B43CD8957
:102CD0002B4383800483CD888586028470BD70B5C4
:102CE000002400220023058C4FF6EF763540058442
:102CF000028C8388048B48F6FF752C404FF6FF4505
:102D00002C400D884FF6FF7606EA05252C434FF63A
:102D1000DF752A400D8906EA05152A434D8806EA23
:102D200005152A43444DA84202D0494DA8421DD161
:102D30004FF67F752A404D894FF6FF7606EA051556
:102D40002A434FF6BF752A408D8806EA05152A43A7
:102D50004FF6FF352B404FF2FF752B408D8906EA69
:102D600085052B43CD8906EA85052B4383800483A3
:102D7000CD880587028470BD70B500240022002331
:102D8000058C4FF6FF6635400584028C8388848B62
:102D90004FF68F752C404FF6FC752C400D882C4358
:102DA0004FF6FF552A400D894FF6FF7606EA0525B6
:102DB0002A434D8806EA05252A431F4DA84202D022
:102DC000234DA8421DD14FF2FF752A404D894FF681
:102DD000FF7606EA05252A434FF6FF352A408D88FF
:102DE00006EA05252A434EF6FF752B404DF6FF7582
:102DF0002B408D8906EA05152B43CD8906EA05157A
:102E00002B4383808483CD888587028470BD70B511
:102E1000002200230024058C4EF6FF763540058401
:102E2000038C8488828B48F6FF752A404FF6FF4555
:102E30002A400D8820E00000002C014000040040E2
:102E400000080040000C004000100040001400404A
:102E500000340140004C014000500140005401404A
:102E600000180040001C00400020004000400140CD
:102E700000440140004801404FF6FF7606EA052570
:102E80002A434DF6FF752B400D8906EA05352B4385
:102E90004D8806EA05352B43FA4DA84202D0FA4D7B
:102EA000A84208D14BF6FF752C408D894FF6FF766E
:102EB00006EA85152C4384808283CD88A0F8405093
:102EC000038470BD828B4FF2FF331A408283828B62
:102ED0004FF6FF7303EA01231A4382837047F0B56C
:102EE0000C461546002200210026078C4EF6FF7C7A
:102EF00007EA0C070784828B018C4FF6FF7707EAFD
:102F0000043640F6FF473A404FF6FF7707EA0527B9
:102F10003A434FF6FF7707EA03373A43D94FB842AF
:102F20000ED0D94FB8420BD0B0F1804F08D0D74F58
:102F3000B84205D0D64FB84202D0D64FB84206D1DB
:102F40004DF6FF77394046F48057394305E047F6A0
:102F5000FF57394044F48057394382830184F0BDE0
:102F6000828B4FF6F3731A408283828B0A438283EB
:102F70007047F0B50C461546002200210026078C4C
:102F80004FF6FF6C07EA0C070784828B018C4FF623
:102F9000FF7707EA04264FF60C773A404FF6FF77A3
:102FA00007EA03172F433A43B64FB8420ED0B64F45
:102FB000B8420BD0B0F1804F08D0B44FB84205D022
:102FC000B34FB84202D0B34FB84206D14FF6FF57C5
:102FD000394046F48077394305E04FF2FF573940D6
:102FE00044F48077394382830184F0BD028B4FF231
:102FF000FF331A400283028B4FF6FF7303EA01236B
:103000001A4302837047F0B50C4615460022002192
:103010000026078C4FF6EF7C07EA0C070784028B2B
:10302000018C4FF6FF7707EA041640F6FF473A4057
:103030004FF6FF7707EA03373A434FF6FF7707EA81
:1030400005273A438F4FB8420ED08F4FB8420BD06E
:10305000B0F1804F08D08D4FB84205D08C4FB842A8
:1030600002D08C4FB84206D14FF6DF77394046F098
:103070001007394305E04FF65F77394044F01007F9
:10308000394302830184F0BD028B4FF6F3731A407B
:103090000283028B0A4302837047F0B50C46154643
:1030A00000220021068C4FF6FE773E400684028BFC
:1030B000018C4FF60C7632407E1C06EA03162E4336
:1030C0003243704EB0420ED06F4EB0420BD0B0F1D2
:1030D000804F08D06D4EB04205D06D4EB04202D048
:1030E0006C4EB04206D14FF6FD76314044F00106F9
:1030F000314305E04FF6F576314044F001063143A7
:1031000002830184F0BD70B505460C465D488542DA
:103110000ED05D4885420BD0B5F1804F08D05B489A
:10312000854205D05A48854202D05A48854200D18E
:1031300000E000BF208850B92389A2886188284612
:10314000FFF7ABFFE1882846FFF79EFF25E02088C8
:1031500004280AD12389A28861882846FFF753FFF3
:10316000E1882846FFF742FF17E0208808280AD1A7
:103170002389A28861882846FFF7FBFEE18828465C
:10318000FFF7EEFE09E02389A28861882846FFF751
:10319000A6FEE1882846FFF795FE70BD2DE9F041B7
:1031A00005460C4600260127608808B9022600E083
:1031B0000026A088012801D1022700E001272088ED
:1031C000A0B92389A28861882846FFF766FFE188B5
:1031D0002846FFF759FF23893A4631462846FFF72C
:1031E00012FFE1882846FFF701FF13E02389A28838
:1031F00061882846FFF707FFE1882846FFF7F6FEBB
:1032000023893A4631462846FFF747FFE18828469A
:10321000FFF73AFFBDE8F0810A884B881A438B8894
:103220001A43CB881A430B891A434B891A438B895B
:103230001A43A0F8442070474FF6FF7181800021A7
:103240000180C1804180017270470021018041806E
:103250008180C180018141818181C18170470021CC
:1032600001804180012181800021C180018170475E
:103270000021018041808180C18001814181818163
:1032800070470000002C0140003401400004004061
:1032900000080040000C004021B1028842F0010209
:1032A000028004E002884FF6FE731A4002807047E5
:1032B00031B1B0F8442042F40042A0F8442005E0C7
:1032C000B0F84420C2F30E02A0F8442070471AB1AF
:1032D00083890B43838102E083898B438381704719
:1032E0008182704741EA0203A0F8483070471AB162
:1032F00083890B43838102E083898B4383817047F9
:1033000001894FF6F8721140018170470A46002189
:1033100001894FF68F73194011430181704730B511
:1033200004460D4629462046FFF7F0FF208940F06D
:103330000700208130BD2DE9F04104460D461646B8
:103340001F46602D06D13B46012231462046FFF73D
:103350005AFE05E03B46012231462046FFF79DFE1E
:1033600029462046FFF7D2FF208940F00700208140
:10337000BDE8F08130B50C4600210189C9B24FF695
:10338000FF7505EA0325154325432943018130BD17
:103390002DE9F04105460E4617469846002443465F
:1033A0003A4631462846FFF7E5FF2C894FF6F8707C
:1033B000044044F007044FF68F70044044F070045A
:1033C0002C81BDE8F081F0B504460D4616461F4637
:1033D0003B46324629462046FFF7CCFF208940F481
:1033E00080402081F0BD0185828270470A4600211D
:1033F00001884FF68F731940114301807047F0B573
:103400000C4615461E460021002200230189028B2E
:10341000038C4FF6F877394021434FF6FC473A408A
:1034200040F201173A434FF6DD773B404FF6FF7706
:1034300007EA06172F433B43018102830384F0BD53
:103440000A460021018B4FF68F7319401143018307
:1034500070470A460021018B48F6FF7319404FF66A
:10346000FF7303EA02231943018370470A460021D0
:10347000818B4FF68F7319401143818370470A4641
:103480000021818B48F6FF7319404FF6FF7303EA62
:10349000022319438183704721B1028842F08002E0
:1034A000028004E002884FF67F731A400280704762
:1034B00021B1828842F00402828004E082884FF6C3
:1034C000FB731A408280704721B1828842F0080263
:1034D000828004E082884FF6F7731A40828070473A
:1034E00021B1828842F00102828004E082884FF696
:1034F000FE731A40828070470A460021018B4FF606
:10350000F77319401143018370470A460021018B6C
:103510004FF2FF7319404FF6FF7303EA022319437A
:10352000018370470A460021818B4FF6F7731940DB
:103530001143818370470A460021818B4FF2FF734C
:1035400019404FF6FF7303EA022319438183704742
:103550000A460021018B4FF6FB731940114301838A
:1035600070470A460021018B4FF6FF3319404FF692
:10357000FF7303EA02231943018370470A460021BF
:10358000818B4FF6FB7319401143818370470A46C4
:103590000021818B4FF6FF3319404FF6FF7303EA8A
:1035A00002231943818370470A460021018B4FF69D
:1035B0007F7319401143018370470A460021018B34
:1035C000C1F30E014FF6FF7303EA0223194301838F
:1035D00070470A460021818B4FF67F7319401143D3
:1035E000818370470A460021818BC1F30E014FF69B
:1035F000FF7303EA02231943818370470A460021BF
:10360000018C4FF6FD7319401143018470470A463F
:103610000021018C4FF6F773194011430184704764
:103620000A460021018C4FF6DF7319404FF6FF73F5
:1036300003EA02131943018470470A460021018CF2
:103640004FF67F7319404FF6FF7303EA02131943D5
:10365000018470470A460021018C4FF6FF53194040
:103660004FF6FF7303EA02231943018470470A46A9
:103670000021018C4FF2FF7319404FF6FF7303EAEC
:1036800002231943018470470A460021018C4DF63C
:10369000FF7319404FF6FF7303EA023319430184A5
:1036A000704730B5002301248C40A3B2048C9C43A6
:1036B0000484048C02FA01F5ADB22C43048430BDBD
:1036C00030B5002304248C40A3B2048C9C430484B2
:1036D000048C02FA01F5ADB22C43048430BD70B500
:1036E0000346002000241846183001258D40ACB256
:1036F0001D8CA5431D8409B1082909D100EB610087
:10370000056825F0700505600568154305600EE045
:103710000D1FC5F34E052844056825F4E0450560F6
:1037200005684FF6FF7606EA02263543056070BD50
:1037300021B1028842F00202028004E002884FF6C2
:10374000FD731A400280704721B1028842F00402E2
:10375000028004E002884FF6FB731A400280704733
:1037600021B1828842F08002828004E082884FF694
:103770007F731A408280704702884FF6F7731A40B1
:10378000028002880A430280704782884FF68F7356
:103790001A40828082880A438280704702894FF6ED
:1037A000F8731A40028102890A4302817047028934
:1037B0004FF67F731A40028102890A4302817047E3
:1037C0008184704781857047818670470187704783
:1037D00081877047A0F84010704702884FF6FF437A
:1037E0001A40028002880A43028070470146888E90
:1037F00070470146088F70470146888F7047014621
:10380000B1F8400070470146888C70470146088D2A
:10381000704702460020138A0B400BB1012000E0E4
:1038200000207047CA430282704730B5024600202C
:1038300000230024158A05EA0103958905EA01049D
:1038400013B10CB1012000E0002030BDCA43028258
:103850007047000010B50446FB48844209D101219D
:103860008803FFF79FF800214FF48040FFF79AF894
:1038700032E0F648844209D101214804FFF79FF85D
:1038800000214FF40030FFF79AF825E0F048844219
:1038900009D101218804FFF792F800214FF480201C
:1038A000FFF78DF818E0EB48844209D10121C804E4
:1038B000FFF785F800214FF40020FFF780F80BE0B8
:1038C000E548844208D101210805FFF778F8002176
:1038D0004FF48010FFF773F810BD2DE9F04786B064
:1038E00005460E460024A24600BFA1460027B08927
:1038F00000B100BF2F462C8A4CF6FF700440F088C0
:1039000004432C82AC894EF6F3100440B088318910
:103910000843718908430443AC81AC8A4FF6FF40E9
:103920000440B0890443AC8201A8FEF7B4FFC64846
:10393000874202D1DDF810A001E0DDF80CA0A889D3
:1039400000F4004040B10AEBCA0000EB0A103168F5
:103950004900B0FBF1F807E00AEBCA0000EB0A10DF
:1039600031688900B0FBF1F86420B8FBF0F0040185
:103970002009642101FB1089A88900F4004040B1AE
:10398000322000EBC900B0FBF1F000F00700044367
:1039900008E0322000EB09106421B0FBF1F000F0E8
:1039A0000F0004432C8106B0BDE8F0874FF4165198
:1039B000016000218180C18001810C2141810021B1
:1039C0008181704710B502460020108A4FF2FF0334
:1039D00018400B884C8823438C882343CC8823438E
:1039E0001843108210BD0021018041808180C18078
:1039F000704721B1828942F40052828104E08289B9
:103A00004DF6FF731A4082817047F0B503460024DB
:103A100000260025002040F66A17B94200D100BFF9
:103A20001846C1F3421401F01F06012707FA06F5F4
:103A3000012C01D10C3004E0022C01D1103000E047
:103A400014301AB107682F43076002E00768AF43DC
:103A50000760F0BD1AB1838A0B43838202E0838A38
:103A60008B4383827047028A4FF6F0731A400282BA
:103A7000028A0A430282704782894FF2FF731A401A
:103A8000828182890A438281704721B1828942F012
:103A90000202828104E082894FF6FD731A4082811E
:103AA0007047028A4FF6DF731A400282028A0A4385
:103AB0000282704721B1028A42F48042028204E00D
:103AC000028A4BF6FF731A4002827047C1F3080264
:103AD0008280704701468888C0F30800704781895A
:103AE00041F0010181817047028BD2B20283028BC7
:103AF00042EA012202837047028B02F47F42028372
:103B0000028B0A430283704721B1828A42F020026D
:103B1000828204E0828A4FF6DF731A408282704705
:103B200021B1828A42F01002828204E0828A4FF63A
:103B3000EF731A408282704721B1828A42F00802F4
:103B4000828204E0828A4FF6F7731A4082827047BD
:103B500021B1828942F40042828103E08289C2F36A
:103B60000E028281704721B1828A42F40062828211
:103B700004E0828A4FF2FF731A4082827047828A81
:103B80004FF6FB731A408282828A0A438282704710
:103B900021B1828A42F00202828204E0828A4FF6D8
:103BA000FD731A408282704702460020B1F5007F03
:103BB00000D100BF13880B400BB1012000E00020B2
:103BC000704701F40072B2F5007F00D100BFCA4314
:103BD0000280704770B502460024002300250020B3
:103BE00040F66A16B14200D100BFC1F3421501F0A0
:103BF0001F03012606FA03F3012D02D196893340F3
:103C000006E0022D02D1168A334001E0968A334045
:103C10000C12012606FA04F41688344013B10CB1D4
:103C2000012000E0002070BD10B50022002340F606
:103C30006A14A14200D100BF0A1201249440A3B229
:103C4000DC43048010BD0000003801400044004007
:103C500000480040004C00400050004006488047AB
:103C600006480047FEE7FEE7FEE7FEE7FEE7FEE761
:103C7000FEE7FEE7FEE7FEE783020008ED0000082E
:103C8000F0B480EA0102D40F4200B2EB410F02D23D
:103C90000246084611464A0042D0C30DDDB2C1F3C8
:103CA000C752AD1A202D35DAC1F3160141F40002D6
:103CB00004B15242C5F1200602FA06F12A4110442D
:103CC000B3EBD05F23D0C4B1012DA0EBC35009DC0E
:103CD000F0BC4FF0004202EAC352DBB200F5000034
:103CE00000F07FBB400000F1807000EBC350A0F1FA
:103CF000807040EAD170490009E0490841EAC0718A
:103D0000A0EBC35000F50000400800EBC350F0BC2E
:103D100000F05EBB6142012202EB4101001BF6E7AD
:103D2000F0BC704781F00041AAE780F00040A7E7AF
:103D300080EA010210B502F00043400022D04A00A0
:103D40001FD0010E01EB1261C0F35600C2F3560200
:103D500040F4000042F40002A0FB022000047F397E
:103D6000140400D0401C50EA124001D44000491E07
:103D7000C2B20C0604EBD010401C4008802A02D0CE
:103D800003E0002010BD20F00100002900DA00202F
:103D9000184310BD30B480EA010202F0004530F053
:103DA000004221F0004013D090B1C30DD40DC2F3F6
:103DB0001601C0F31600E41A41F4000140F40002B9
:103DC0007D34914201D3641C00E04900002C02DAEA
:103DD00030BC002070474FF400000023914201D313
:103DE000891A034340084FEA4101F7D151B191428A
:103DF00002D14FF0004105E002D24FF0010101E095
:103E00006FF0010103EBC450284430BC00F0E0BA6D
:103E10002DE9FE4F804681EA0300C00F0C4600905A
:103E200021F0004123F00045B8EB0200A94105D282
:103E30004046214690461C460B46024623F0004071
:103E4000104347D0270DC7F30A00C3F30A5102906D
:103E5000401A019040286BDAC3F3130040F4801B32
:103E60000098924620B10023D2EB030A63EB0B0BC0
:103E700001985946C0F14002504600F078FA0646D3
:103E80000D4650465946019A00F090FA10EB080092
:103E90006141002487EA115284EAE7731A4340D053
:103EA000009A62B3019A012A4FEA075215DC001BFF
:103EB00061EB02014FF0004202EA0752CDE90042F5
:103EC000001C41F5801132462B4600F0C7FA03B0C2
:103ED000BDE8F08F40462146F9E7001B61EB020187
:103EE000001C41F5801300185B412018A2F5001753
:103EF00047EB030140EAD570B6196D4111E06D083A
:103F00004FEA360645EAC0754FEA0752001B61EBDF
:103F10000201001C41F5801149084FEA30000019E8
:103F2000514132462B4603B0BDE8F04F00F087BA4E
:103F30000098012240000023D0EB020263EBE07303
:103F4000009821464FEAE074B8EB000061EB0401F1
:103F5000E9E783F000435BE781F0004158E72DE992
:103F6000FE4F81EA030404F0004421F00041009474
:103F70004FF0000B23F0004350EA01045ED052EAF8
:103F800003045BD0C3F30A54C1F30A552C44A4F2D2
:103F9000F3340194A0FB0254C1F3130141F48011E6
:103FA000C3F3130343F4801301FB024400FB034EED
:103FB000840A970A44EA815447EA8357A4FB0768B6
:103FC00002958D0A05FB07854FEA932C04FB0C54E0
:103FD0002705029D4FEA065847EA1637B5EB080554
:103FE0006EEB070C870E920E47EA811742EA8312A6
:103FF000A7FB0201B6EB0B0164EB00042B0D43EAB7
:104000000C335E1844EB1C50DA465146E7FB0201C4
:10401000C5F313044FEA0B3343EA14534FEA043257
:10402000019C43EA0603A4F10C040294009CCDE930
:1040300000B400F013FA03B0BDE8F08F0020014691
:10404000F9E72DE9F04D81EA030404F0004B21F07B
:10405000004514464FF0000A23F0004150EA0502E3
:1040600020D054EA01021DD0C5F30A570246C5F319
:104070001303C1F31300C1F30A5640F4801543F44F
:104080008013A7EB0608101BD64608F2FD3873EB29
:10409000050002D308F1010801E092185B41B8F174
:1040A000000F03DA00200146BDE8F08D00204FF438
:1040B0008011064684460EE0171B73EB050705D3F7
:1040C000121B63EB050306434CEA010C49084FEA57
:1040D000300092185B4150EA0107EDD152EA03002B
:1040E00012D082EA040083EA0501084305D0101BC0
:1040F000AB4106D20122002306E000224FF000432C
:1041000002E06FF0010253101AEB06004CEB08516D
:1041100010EB0A0041EB0B01BDE8F04D00F08FB948
:10412000C10F80EAE0700844CA079623002100F01E
:1041300058B90EB5C10F80EAE0700844CA070021E3
:1041400040F233438DE80E000A460B4600F086F934
:1041500003B000BD0EB540F2334102910021CDE91C
:1041600000110A460B4600F079F903B000BD00F0DB
:10417000004220F00040C10DC0F3160040F40000E2
:104180007F2901DA00207047962903DCC1F19601EE
:10419000C84001E096398840002AF4D04042704778
:1041A00020F00040C10DC0F3160040F400007F294C
:1041B00001DA00207047962903DCC1F19601C8405E
:1041C0007047963988407047C1F30A5210B5C1F361
:1041D000130140F2FF3341F480119A4201DA0020CA
:1041E00010BD40F233439A42A2F2334203DC524202
:1041F00000F0CCF810BD904010BD00F0004230F04F
:1042000000400AD0C10D01F56071C0F3160042EA0A
:104210000151C20840071143704700200146704712
:1042200030B5041E71F1000404DB4FF0004440423D
:1042300064EB0101141E73F1000405DB1C464FF012
:104240000043524263EB04038B4208BF824230BDFD
:1042500030B5041E71F1000404DB4FF0004440420D
:1042600064EB0101141E73F1000405DB1C464FF0E2
:104270000043524263EB0403994208BF904230BDB1
:1042800001F0004330B421F0004150EA010206D0B1
:104290000A0DA2F56072C1F31301002A02DC30BCE2
:1042A00000207047440F44EAC104C100E01830BC4C
:1042B00000EBC25000F08CB8002801DBC0F10040D8
:1042C000002901DBC1F1004181427047002801DB78
:1042D000C0F10040002901DBC1F100418842704774
:1042E00030B50B46014600202022012409E021FAC6
:1042F00002F59D4205D303FA02F5491B04FA02F5C3
:104300002844151EA2F10102F1DC30BD2DE9F05F59
:104310000546002092469B46884606468146402434
:104320001BE0284641464746224600F02FF85346F8
:104330005A46C01A914110D311461846224600F041
:1043400016F82D1A67EB01084F462246012000217E
:1043500000F00DF817EB00094E41201EA4F10104F6
:10436000DFDC484631462A464346BDE8F09F202A16
:1043700004DB203A00FA02F1002070479140C2F1BC
:10438000200320FA03F3194390407047202A04DBEE
:10439000203A21FA02F00021704721FA02F3D040BE
:1043A000C2F120029140084319467047202A06DBDB
:1043B000CB17203A41FA02F043EAE07306E041FAF3
:1043C00002F3D040C2F120029140084319467047E1
:1043D0000029A8BF7047401C490008BF20F0010019
:1043E000704710B4B0FA80FC00FA0CF050EA0104F7
:1043F00004BF10BC704749B1CCF1200421FA04F489
:1044000011FA0CF118BF012121430843A3EB0C0161
:10441000CB1D4FEA00614FEA102042BF002010BCC4
:10442000704700EBC35010440029A4BF10BC704774
:10443000401C490008BF20F0010010BC704710B5B7
:10444000141E73F1000408DA401C41F100019218B7
:104450005B411A4301D120F0010010BD2DE9F04D60
:1044600092469B4611B1B1FA81F202E0B0FA80F2B5
:1044700020329046FFF77BFF04460F4640EA0A00D1
:1044800041EA0B0153465A46084313D0114653EAFA
:10449000010019D0C8F140025046FFF777FF0546EA
:1044A0000E46504659464246FFF761FF084305D085
:1044B000012004E020463946BDE8F08D0020054388
:1044C00046EAE0762C4337430A986305E40AA0EBFA
:1044D00008000022FD0A44EA47540A3002D50020B1
:1044E0000146E9E7010510196941DDE908450019B0
:1044F0006941BDE8F04DA2E7C1F30A52C1F31301CF
:1045000040F2FF3341F480119A4202DA0020014662
:10451000704740F233439A42A2F2334202DC5242E5
:10452000FFF734BFFFF723BF064C074D06E0E068F6
:1045300040F0010394E8070098471034AC42F6D3EA
:10454000FBF7D8FDDC4E0008FC4E00080FB4054B0D
:1045500010B503A9044A029800F0CAF810BC5DF82F
:1045600014FB0000750400081800002002E008C8D1
:10457000121F08C1002AFAD170477047002001E0DD
:1045800001C1121F002AFBD1704700002DE9FF5F17
:10459000DDE90220010DDDF838B0024318D044F601
:1045A0001050A1F2FF3141430D140F98012820D083
:1045B000A5EB0B00401C5FEA000A4FF00004474ED9
:1045C000DFF81C91A046504616D5CAF1000728E036
:1045D0000F98012443A2012808D0002100980F9BC6
:1045E000C0E90021C0E90243BDE8FF9F6FEA0B016B
:1045F000F4E7CBF10000DEE7074612E0F80707D04A
:104600002246334640464946FFF7A9FC8046894684
:104610002246334610461946FFF7A1FC04460E46D3
:104620007F10002FEAD1DDE90201BAF1000F424606
:104630004B4602DAFFF793FC01E0FFF702FD044668
:104640000E460022284BFFF703FE03D84FF0FF3041
:10465000014607E00022254B20463146FFF7D8FBF4
:10466000FFF74AFF102409E0002C0ADB0A2200238E
:10467000FFF74CFE019B30321A55641E50EA0102CE
:10468000F2D1641C019AC4F1110314440F9A012A57
:1046900003D0012208430DD10AE0084304D00020D2
:1046A0004FF0110B0F9080E7A3EB0B056D1E0DE093
:1046B0005B4504DD4FF0000205F1010504E003DA7B
:1046C0004FF00002A5F10105002AECD000980F99E7
:1046D000C0E90231C0E9004586E70000000024403F
:1046E0000000F03F300000000000F0430000E03F19
:1046F0002DE9FF4F95B09B468946064600250FE2FF
:10470000252877D100242746F84A0121059400E0A6
:10471000044316F8013F203B01FA03F01042F7D1A1
:1047200030782A2811D06FF02F033078A0F13002B2
:10473000092A16D8059A44F0020402EB820203EB20
:1047400042021044761C0590EFE759F8042B0592BD
:10475000002A03DA504244F40054059044F0020465
:10476000761C30782E2816D116F8010F44F0040478
:104770002A280DD06FF02F023078A0F13003092BDA
:1047800009D807EB870302EB4303C718761CF3E74E
:1047900059F8047B761C30786C280FD006DC4C2846
:1047A00017D068280DD06A2814D104E0742810D0DE
:1047B0007A280FD10DE044F400140AE044F4801488
:1047C00001E044F440147278824202D104F580146E
:1047D000761C761C307866280BD013DC582877D0EE
:1047E00009DC002875D04528F6D04628F4D04728A3
:1047F0001AD19DE118E0632835D0642879D0652866
:1048000012D195E1702873D008DC6728F1D06928AF
:104810006FD06E280DD06F2806D1B5E073282CD04C
:10482000752875D0782874D05A46179990476D1C12
:1048300075E1C4F30250022809D003280DD0D9F83D
:10484000001004280DD00D6009F1040967E1D9F8C2
:104850000010EA17C1E90052F6E7D9F800100D8000
:10486000F2E70D70F0E719F8041B8DF80010002036
:104870008DF80100EA46012003E059F804AB4FF03F
:10488000FF3061074FF0000102D40DE008F1010193
:104890008846B9420FDA8045F8DB1AF8081000297B
:1048A000F4D108E008F1010188468142FADB1AF8E8
:1048B00008100029F6D105985B46A0EB08072146B1
:1048C0003846179A00F094FA284400EB080507E0F0
:1048D0004DE029E10DE01AF8010B5A46179990476F
:1048E000B8F10108F7D25B4621463846179A13E122
:1048F00042E00A220092C4F302524FF0000A022A58
:1049000008D059F804CB032A4FEAEC710AD00DE025
:1049100029E02AE009F1070121F00702F2E802C1CB
:10492000914609E00FFA8CFC4FEAEC71042A03D19E
:104930004FFA8CFC4FEAEC71002907DA0A46002195
:10494000DCF1000C61EB02012D2202E0220504D50E
:104950002B228DF80420012203E0E20701D020225F
:10496000F7E7904659E00A2102E010220DE01021FD
:104970004FF0000A00910BE010224FF0000A44F0C3
:1049800004040827009203E008224FF0000A009276
:10499000C4F30252022A05D059F804CB0021032A9D
:1049A00008D009E009F1070121F00702F2E802C18D
:1049B000914605E01FFA8CFC042A01D10CF0FF0C93
:1049C0004FF00008220728D5702806D0009B83F0FE
:1049D000100353EA0A0305D00EE040228DF80420AC
:1049E000012208E05CEA010206D030228DF80420A2
:1049F0008DF8050002229046009B83F0080353EADD
:104A00000A030AD15CEA010201D1620705D530220E
:104A10008DF804204FF001087F1E582804D034A0E0
:104A200003900EA802900DE036A0F9E753466046C9
:104A3000009AFFF76BFC84460398825C0298401E44
:104A4000029002705CEA0100F0D1029806A9081AEF
:104A500000F1200A600702D524F4803400E0012729
:104A6000574502DDA7EB0A0000E0002000EB0A0139
:104A7000009005984144401A0590E00306D45B4637
:104A80002146179A059800F0B3F90544002706E07F
:104A900001A85A46C05D179990476D1C7F1C474579
:104AA000F6DBE0030CD55B462146179A059800F02B
:104AB0009FF9054404E030205A46179990476D1C31
:104AC0000099481E00900029F5DC08E00298029940
:104AD0005A460078491C0291179990476D1CBAF10B
:104AE0000001AAF1010AF1DC65E1000009280100DA
:104AF0003031323334353637383961626364656654
:104B00000000000030313233343536373839414215
:104B1000434445460000000000F058F90544761C67
:104B2000307800287FF4ECAD19B02846BDE8F08F4E
:104B3000620700D4062709F1070222F0070CFCE8FF
:104B40000223E14603F000485FEA080C02D00FF2AE
:104B5000702C0DE05FEA045C02D50FF2682C07E0D0
:104B60005FEAC47C02D00FF2602C01E0AFF2700C5F
:104B70004FF0FF3823F00043CDF850C065280CD02B
:104B800006DC452809D046281DD047283DD13DE008
:104B9000662818D067287ED138E00021112F01DB6C
:104BA000112000E0781CCDE9000106A90EA8FFF74E
:104BB000EDFCDDE90F010E9A03910021009207F14F
:104BC000010A04914DE04FF000400097CDE901103B
:104BD00006A90EA8FFF7DAFCDDE90F0203920E9B8F
:104BE00011990022DDF80CA00093049211B9791CF0
:104BF00000EB010AB7EB0A0004D4C0F1FF3007F163
:104C0000010A0490AAEB0700019044E0012F00DAAA
:104C100001270021112F01DD112000E03846CDE9E8
:104C2000000106A90EA8FFF7B1FCDDE90F010E9AFD
:104C30000391002104910092BA4621070CD40399F4
:104C4000514500DA8A46BAF1010F05DD009AAAF152
:104C50000101515C302908D0B84202DA10F1040F8A
:104C600006DA0121CDE9011015E0AAF10101E9E719
:104C7000002805DC049901440491AAEB000102E03C
:104C8000411C514500DD8A460499401A401C0190A0
:104C90004FF000400290200704D40198504501DBFA
:104CA000CDF8048000208DF84F0002980DF14F07D9
:104CB000B0F1004F25D02B200E9002984FF0020843
:104CC00000280CDA404202902D200E9007E00A21C5
:104CD0000298FFF705FB3031029007F8011DB8F18B
:104CE0000001A8F10108F2DC02980028EFD1791E3A
:104CF0000E980870307800F0200040F0450007F86A
:104D0000020D12A8C01B00F107081498007800B12A
:104D1000012000EB0A01019801EBE0710598414484
:104D2000401A401E0590E00306D45B462146179AC0
:104D3000059800F05DF805441498007818B15A46BB
:104D4000179990476D1CE00324D55B462146179ABE
:104D5000059800F04DF805441CE00498002807DB96
:104D6000DDE90301884203DD0098405C179901E00A
:104D7000179930205A469047049805F10105401CC8
:104D800004900198401E019004D12E205A46179994
:104D900090476D1CBAF10001AAF1010ADDDC05E0C3
:104DA00017F8010B5A46179990476D1CB8F100018E
:104DB000A8F10108F4DC5B462146179A0598ABE69A
:104DC0002D0000002B000000200000002DE9F04124
:104DD000044600251E461746880404D405E03946DB
:104DE0002020B0476D1C641EF9D52846BDE8F0812F
:104DF0002DE9F041044600251E469046C80301D522
:104E0000302700E02027880404D505E041463846D5
:104E1000B0476D1C641EF9D52846BDE8F08100003E
:104E200010B5002821D0114B0022001F196803E0A3
:104E3000814203D80A4649680029F9D152B1136862
:104E4000841A9C4204D1006818441060104602E0A5
:104E5000506000E0186039B102680B1A934203D128
:104E60000B681A4402604968416010BD840000204C
:104E7000F0B50B30154D20F007010024144A0FE067
:104E800003688B420BD38B4205D95E1A43184768DF
:104E9000C3E9006700E04368136002C004E0021D3C
:104EA00010680028ECD12046002802D1286808B1FB
:104EB0000020F0BD064A07481060074A121A22F087
:104EC0000702C0E9002401202860D7E788000020FD
:104ED000840000203401002030030020FC4E000834
:104EE000000000208C0000006C450008884F00087E
:104EF0008C000020A40600007C45000800A24A04A3
:104F00000000000000000000010203040607080979
:104F10000000000000000000000000000000000091
:104F20000000000000000000000000000000000081
:104F30000000000000000000000000000000000071
:104F40000000000000000000000000000000000061
:104F50000000000000000000000000000000000051
:104F60000000000000000000000000000000000041
:104F700001020304010203040607080902040608EB
:084F8000000000000000000029
:04000005080000ED02
:00000001FF
